:020000041000EA
:1000000000B5324B212058609868022188439860DF
:10001000D860186158612E4B002199600221596106
:100020000121F02299502B49196001219960352056
:1000300000F044F80222904214D00621196600F024
:1000400034F8196E01211966002018661A6600F04E
:100050002CF8196E196E196E052000F02FF8012189
:100060000842F9D1002199601B49196000215960AB
:100070001A491B48016001219960EB211966A021F2
:10008000196600F012F800219960164914480160C1
:100090000121996001BC002800D000471248134993
:1000A000086003C880F30888084703B5996A0420EC
:1000B0000142FBD001200142F8D103BD02B5186610
:1000C0001866FFF7F2FF186E186E02BD00000240BE
:1000D000000000180000070000035F00212200005C
:1000E000F4000018222000A00001001008ED00E03C
:1000F00000000000000000000000000074B24E7A12
:1001000000200420F7010010CB010010CD010010E9
:10011000C9010010C9010010C9010010C901001077
:10012000C9010010C9010010C9010010CF01001061
:10013000C9010010C9010010D1010010D301001045
:10014000C1010010C1010010C1010010C101001067
:10015000C1010010C1010010C1010010C101001057
:10016000C1010010C1010010C1010010C101001047
:10017000C1010010C1010010C1010010C101001037
:10018000C1010010C1010010C1010010C101001027
:10019000C1010010C1010010C1010010C101001017
:1001A000C1010010C1010010C1010010C101001007
:1001B000C1010010C1010010C1010010C1010010F7
:1001C000EFF30580103800BE00BE00BE00BE00BECA
:1001D00000BE00BEF2EB88717C110710A011071061
:1001E0003802001090A31AE71E481F49086006C88D
:1001F00081F3088810471D480068002801D019487D
:10020000F3E70DA40ECC002902D000F012F8F9E7B4
:100210001749184A002000E001C19142FCD116495B
:100220008847164988471649884700BEFDE701C937
:1002300001C29A42FBD37047A0110710E0000020D2
:10024000801800204029071000000420000004202E
:1002500040290710001004200010042000000000B6
:10026000704700000000000008ED00E0000000D032
:1002700080180020281F0320314200106103001065
:1002800029420010F8B5C04610B5064C2378002B63
:1002900007D1054B002B02D0044800E000BF01232A
:1002A000237010BDA01B00200000000018EE0210FB
:1002B000044B10B5002B03D00349044800E000BFF5
:1002C00010BDC04600000000A41B002018EE021064
:1002D00010B50DF06FFA002807D0094804F034F982
:1002E000FA20800015F0AEF9FAE70648064B4360A5
:1002F0001FF0E4F80021080000F0E4F8F0E7C04641
:1003000018EE0210985200200D03001000B583B0C3
:1003100004280AD11378602B09D0612B05D191787C
:10032000002913D00B4804F097F903B000BD93786F
:10033000022BFAD168461FF089F968461EF0E0F8F2
:10034000054B0100180004F087F9EEE7034804F0BC
:10035000FBF8EAE758EE021038EE021068EE0210E1
:1003600000B585B004F0A0F803AB0193802202230E
:1003700005490093D2000023044814F05BFF14F0F9
:1003800083FF002005B000BD78EE0210D1020010FE
:10039000174B70B51B680400002B14D1154A107858
:1003A0000138C0B20300312801D8642364201370DF
:1003B00028F006F8FA21200089001DF0EFFD20004A
:1003C0001DF0F8FD70BD0C4A0C4D13681E21013361
:1003D000136028000A4A03F0CBFE0A4B186028007D
:1003E00004F0B2F8084B188827F000FFD6E7C046A3
:1003F0000C6B0020081200207426002078260020B4
:1004000088EE021098260020E81E032010B504286C
:1004100004D11378052B0BD0B72B00D010BD0649A3
:10042000064B074A1B8808880D2127F001FFF5E7D6
:100430000022044B1A60F1E7E81E032098260020F2
:10044000782600200C6B0020F8B506AD80CD0C009E
:10045000060011002D881A000D2C0FD00E2C01D093
:100460000020F8BD002138001DF0EEFD01384242A9
:100470005041074B1860074B1E80F1E72B000648E0
:1004800004F0EAF8290038001DF0BAFEE8E7C0469B
:100490000C6B0020E81E0320A0EE021010B582B005
:1004A00004A8048800200D2901D002B010BD034922
:1004B00003480988009426F091FCF6E7982600206E
:1004C0007826002010B586B023F01CF92DF0FAF93B
:1004D000244A2549254827F033FE254B04AC1878DB
:1004E00027F030FF06220021200002F09BF90023B4
:1004F000029307330022019300940023302130201F
:100500002EF016F81B49132022F0B6FA012022F033
:100510000BFB194C194844601EF0D0FF200027F057
:100520003BFEFA21164C174B20008900A3601DF0FA
:1005300035FD20001DF03EFD134A144C13681E21AA
:10054000013313602000124A03F012FE114B1860B1
:10055000200003F0F9FF012022F0CEF9002006B0C0
:1005600010BDC046490400109D040010403A03101D
:10057000081200202C3A03100D040010A052002095
:10058000746100209103001074260020782600205A
:1005900088EE021098260020094A83009A1810B5A8
:1005A00014684022544080322240064CC000A446C9
:1005B00063441A60044B9C466044416010BDC046D1
:1005C00004C0014004D0014000400140074B8000BE
:1005D000C3181B68C90092000A435A400C231340F9
:1005E000034A9446604403607047C04604C001401B
:1005F00004D001408000002905D0064B9C46022310
:10060000604403607047044B9C46022360440360CF
:10061000F8E7C04604E0014004F00140D0231B0687
:100620001B6830B50500584243412F205B4283438D
:100630000E48EC08844607202840800081402000B6
:100640000B4D3C3063448000A40041511B19002A2B
:1006500005D08022920194466344196030BDC022C7
:100660009201944663441960F8E7C0463041014066
:1006700000400140D023F0B5C6461B0698461B68D3
:100680000C4F9B001600FA5804000D0000B51042F4
:1006900009D1290014430D203200FC5000F0AEF9BE
:1006A00080BCB846F0BD01F05BFB43461B689B0075
:1006B000FA58EEE79C17012010B504000D2000F059
:1006C00097FAD0231B061B6802499B005A58A24385
:1006D0005A5010BD9C1701200123D02283401206DE
:1006E00093629361094A83009A181168402251402D
:1006F00080320A400649C0008C4663441A60054BAC
:100700009C460523604443607047C04604C00140D6
:1007100004D00140004001408023DB051868000F31
:100720007047C0460FB400B5084883B003F00CFF13
:10073000049B002B07D005A91800019103F03CFD94
:10074000034803F001FF012003F04EFDDCEE021030
:1007500064EE021010B50148FFF7E4FFECEE021062
:10076000EFF3108072B6034A1368002BFCD0BFF37E
:100770005F8F70472C0100D0BFF35F8F0022024BC8
:100780001A6080F3108870472C0100D070B5EFF329
:10079000108C72B60D4D2B68002BFCD0BFF35F8F11
:1007A0000724CB08C618C05C01230C40A3401C00E2
:1007B0000440034207D118433070BFF35F8F2C60B1
:1007C0008CF3108870BD1000FFF7ACFF2C0100D037
:1007D000F8B54746CE46884680B5EFF3108C72B622
:1007E000214D2C68002CFCD0BFF35F8F9A422CD88F
:1007F000D4080727055D061901241740BC402C4288
:100800001FD007210127894609E0D408055D061994
:100810004C4639001440A1400C00294211D001324D
:100820009342F2D201204042BFF35F8F00220E4B71
:100830001A608CF3108800280FDBC0BCB946B046A4
:10084000F8BD254310003570EEE7BFF35F8F00233E
:100850002B608CF31088012040424346002BECD0E3
:100860000898FFF75FFFC0462C0100D030B5EFF3CA
:10087000108C72B60A4C2368002BFCD0BFF35F8F3C
:10088000072301220B409A40CD08435D9343435513
:10089000BFF35F8F002323608CF3108830BDC04608
:1008A0002C0100D0044A1078431CDBB2172B00D96E
:1008B000102313707047C0460912002010B5034B77
:1008C00001001800024AFFF761FF10BD402600201A
:1008D000FCEE021010B5064B064C82B001000093EE
:1008E00018221F232000FFF773FF02B010BDC0467F
:1008F0001CEF0210402600200021044B044ABFF3E5
:100900005F8F02C39342FAD17047C046000100D006
:10091000800100D0054B064A1360064A13605360FD
:100920009360D360136153619361704780808080CE
:1009300000E400E004E400E01F2318401E3B834075
:10094000002905D0C021044A490053501360704764
:10095000802201498B50FAE700E100E00122824049
:10096000034B1B6813405A1E9341D8B27047C046D0
:1009700000E100E001238340014A13607047C04654
:1009800000E200E0064B10309B688000C358054A27
:1009900000209B1A2F229A424041C0B27047C046A5
:1009A00000ED00E00C12002070B50D00EFF3108692
:1009B00072B60F4A1368002BFCD0BFF35F8F0D4B4C
:1009C00010309B6884001B590B4A934203D09D4210
:1009D00001D001F0C5F9074B9B681D51BFF35F8F34
:1009E000BFF35F8F0022024B1A6086F3108870BD40
:1009F000240100D000ED00E0C1010010F0B5574621
:100A00004E46DE464546E0B585B00600009117002B
:100A1000EFF3108B72B66A4A1368002BFCD0BFF359
:100A20005F8F0025674B5D579A46002D00DAA9E0DD
:100A30006B00654C01935B199B009846A146C1442D
:100A40004B4652469B7910361370604BB6009B683C
:100A500099590B1B2F2B33D95D4B994200D0ACE039
:100A6000019B42469C465B4B6544AD0063535A4B29
:100A70000232A218043B9B1A1B05584A5B0D6519EC
:100A800013436B80564B0121AB80FF23AB71009B5E
:100A9000EF71AB604B460B4319004C4B9B6899516F
:100AA000BFF35F8FBFF35F8F0022454B1A608BF35C
:100AB000108805B0F0BCBB46B246A946A046F0BDC2
:100AC00001200A008243D3798C46BB4231D8454687
:100AD000130044491B1B5B415943090D3D4B6353B4
:100AE0003D4B02356519043B5B1B1B053B4D5B0D04
:100AF0002B43AA464D466B800425AC465546E04440
:100B0000131F44441B1B1B055B0D1D434B46997172
:100B100000999D8099604946DF71334B0143136012
:100B2000BBE75800C01880002018C179B9422FD9FE
:100B300002000623D356002BF3DA02932B4B6146B7
:100B40000393131D9A4604235B429C46E14450469E
:100B50004B461B1A1B055B0D9C46204B9571984616
:100B60006346404603439380019B5A199200039BBE
:100B7000A418A380029B1C4AA371009B2260E7710A
:100B8000A3608AE701F0ECF8002553465D574FE774
:100B9000908802934005131D9A46031561469C46B2
:100BA0004046D444634604302018181AE023000558
:100BB000400D1B0218430390C5E701F0D1F84FE741
:100BC000240100D0091F03200C12002000ED00E0DA
:100BD000C101001000A1FFFF3C12002000E0FFFF58
:100BE00001BDFFFFAAAA00000148804701BD000027
:100BF000F0B5DE4657464E464546E0B50C0083B09C
:100C0000EFF3108872B6674A1368002BFCD0BFF36D
:100C10005F8F654B9A68030010339F00D559634A74
:100C20009446954245D0A54256D0614EAA1B2F2A24
:100C30003FD8604A9246126891460122494693463F
:100C4000824011401F22019159460240914089463D
:100C50008022514648468850BFF35F8FEFF30582EC
:100C60009246002A3AD0934201D001F079F801234C
:100C70002800984306238168C3569B461A008C427D
:100C80000AD18AE053009B189B00F31899688C42A4
:100C900037D0062218009A56002AF3DA8C425AD02E
:100CA000019B002B28D0C0224946424B520099504C
:100CB00019603D4B9B68DD51BFF35F8FBFF35F8FC2
:100CC0000022384B1A6088F3108803B0F0BCBB4692
:100CD000B246A946A046F0BD1500EAE75B462800EB
:100CE000062298438256816893468C42D4D10300F1
:100CF000002A0BDA654636E0802349462D4AD1505A
:100D0000D7E706229A569346002A25DB5A465946CB
:100D1000520051188900701884689C60C479DC7195
:100D2000062404579C71002C27DB808840050015A1
:100D30000818F11A0918E0200905490D00020143BD
:100D4000998013001C4A5B4411789B00F318997139
:100D50005B461370A4E703005246002A10D1FF320D
:100D60008271164A828014490A789A71144A9B1B30
:100D70005B415A43120D0A7092E71249E0E7030003
:100D8000114A1249D21A083A5002400D0143998083
:100D90000F4952080A43DA8082E7002BEFDB030099
:100DA000B4E7C046240100D000ED00E0C10100100E
:100DB0000C12002000E100E0091F032001BDFFFF2D
:100DC000AAAA000001BD00004612002000F0FFFFAB
:100DD00000F8FFFF10B58308040003202040FF2423
:100DE000054AC0009446844081409B0063441A68D1
:100DF000A2430A431A6010BD00E400E070B501246C
:100E00000443EFF30581EFF3108C72B6214A1368A7
:100E1000002BFCD0BFF35F8F1F4B05001F4AED1A5C
:100E20006D416A43120D1E4D8900AE6852B276586C
:100E3000A6421CD00621595691421CD01221595667
:100E4000914222D01E215956914220D02A21595632
:100E50000324914210D0134B19781A708171BFF39B
:100E60005F8F00220B4B1A608CF3108870BDAB684B
:100E70000D4C5C50EFE700246100091989005B18F4
:100E8000FF21997109499980E5E70124F4E70224DB
:100E9000F2E7C046240100D00C120020AAAA0000EC
:100EA00000ED00E0091F0320C101001001BDFFFF9C
:100EB00010B5084B084C82B00100009300220523B6
:100EC0002000FFF785FC002801DB1F23181A02B061
:100ED00010BDC04638EF0210261F0320024B9C466F
:100EE000614489000160704740000034F8B5124C3D
:100EF000124DAC4212D20126002776422368002B05
:100F00000DD0FFF7CFFC01002000FFF7E7FF666080
:100F10002772BFF35F8F0C34AC42EFD3F8BDFFF7FD
:100F2000C1FC01002000FFF7D9FF6660BFF35F8FAF
:100F30000834AC42E2D3F1E770180020801800209A
:100F400010B50400FFF7AEFC01002000FFF7C6FF5C
:100F500001235B426360BFF35F8F10BD10B50400D7
:100F60000120FFF7B7FC034BC3189B002360BFF3BE
:100F70005F8F10BD40000034034B9C4661448900E4
:100F80000160BFF35F8F704740000034F0B5DE466C
:100F900057464E464546E0B583B0EFF3058203233E
:100FA0001340B54A990052580091904601229A4048
:100FB0009346B24B1A60B24B01935B46B148436310
:100FC000434608229B5E9946002B3ADA43469B88AB
:100FD0001BB2002B00DB9DE043469B79002B00D029
:100FE000E1E0434608241C5F002C20DB43465A699D
:100FF00063001B19DB00D3189D68DC686B1C00D1F3
:1010000003E1A048009984466144826A0B69AE1AE4
:101010009B1A9E4213D35A46036A1A420FD099482C
:1010200000F0A0FB8C4202DCC7D18542C5D940BF8D
:1010300003B0F0BCBB46B246A946A046F0BD0D6168
:10104000EDE7424652695B0092464B44DB009A440E
:1010500053469E68DF6800F085FB8F42B6DC00D106
:10106000F8E0002F00DAD9E05246534654691B6974
:10107000019A934200D1CCE0414652460820085ED6
:101080005288000421001043984704000D002300FB
:101090002B4300D1C2E0002D00DBDFE0300039003F
:1010A000001BA94153469860D96000229A5E002A2D
:1010B00000DA8BE743465D6953009C18E4002C1965
:1010C000A768E4688C4200DD80E702D1874200D93E
:1010D0007CE74646328108360DE08C4200D1C6E0FE
:1010E0001E000023F25E002A0ADB53009C18E40075
:1010F0002C19A768E4689B18DB00EB188C42ECDD28
:1011000053461A804B46338043469B881BB2002BC4
:1011100000DA61E743461A69EFF3108172B613688B
:10112000002BFCD0BFF35F8F43469E8801234246CD
:101130005B42938036B21369BFF35F8F00221A605F
:1011400081F31088002E00DA46E743465D690833D4
:1011500042469C467700BF19FF00EF19BB68604606
:1011600098460823D15E9246FC68002907DA0EE013
:10117000A24246D018000023C15E002906DB4B00C6
:101180005B18DB00EB18DA68A242F1DD52460680FC
:101190000023FE5E3980002EDCDA904643469B79C0
:1011A000002B00D11DE7002342469371434646467B
:1011B0000821595E08364B1C00D138E7474689465E
:1011C000556902E006004B1C18D04B005B18DB0091
:1011D000E8180A008C46E95E43881BB2002BF1DA5E
:1011E00001235B42DC178360C4604A4503D0318031
:1011F0003B8903803A81E1464B1CE6D1B8464C4618
:10120000F2E69A684245B5D9C0E7631C00D0F8E61B
:1012100005E7200023699847002825D15346424618
:101220001B8813811269EFF3108372B611680029CD
:10123000FCD0BFF35F8F4246514652880A80424637
:10124000494651801269BFF35F8F0021116083F31B
:101250001088BBE6864200D803E7B7E6094800F0ED
:1012600081FA001969411DE7656824680FE7874224
:1012700000D835E744E7C046340501203C700540FE
:101280008D0F001000400540074810B50268EFF3CD
:10129000108172B61368002BFCD0BFF35F8F11F082
:1012A000F5F90020002110BDBC18012070B52E4CAE
:1012B0002569002D04D00A212C48FFF70FFE70BDD0
:1012C0002B4E0321300000F043FAE660FFF7EAFA04
:1012D000284B03229C46D02322701B061B68012149
:1012E0006370254B6044A3600F23800020610220BF
:1012F000638063694942A1801980023119864731B0
:101300001D83585218315A5275325C39995218322D
:1013100001319952183201319952183201319952E2
:10132000083518329D520231183299521832013163
:1013300099521832013199521832013199521832AA
:10134000013199521832013199520C4B0C49DC6031
:1013500001303562FFF728FB01210320FFF7ECFA8B
:10136000084B1D60A7E7C04654120020BC1801209E
:101370000040054040000034FFFF1000340501200C
:101380008D0F00103860054000487047541200204F
:10139000F8B51F0008AB1B7804001600002B08D11D
:1013A00000F0E8F932003B00121A8B41002B00DA02
:1013B00053E02269EFF3108072B61368002BFCD063
:1013C000BFF35F8F0223E15E63694A005218D200C7
:1013D0009B18002937DB1A8862802269BFF35F8F70
:1013E0000025156080F31088069A9E60DF601A6100
:1013F000079A5A615A8801325204520C101C002A72
:101400001FD082B25880080410432669EFF310877A
:1014100072B63268002AFCD0BFF35F8FA2881A80B0
:10142000A1802369BFF35F8F00221A6087F31088C1
:101430000B4923788C4601329A40E36863441A6072
:10144000F8BD0120DDE72369BFF35F8F00221A603A
:1014500080F3108801204042F2E70020F0E7C04608
:101460003C20000070B501000469EFF3108C72B6E7
:1014700020680028FCD0BFF35F8F02200D5E4C690E
:1014800068004019C0002418002D37DB20884880F0
:101490000869BFF35F8F002606608CF31088E36055
:1014A00063880498013320615B0405985B0CA2609B
:1014B00060611A1C002B1FD093B22804628018436D
:1014C0000A69EFF3108C72B61368002BFCD0BFF3DF
:1014D0005F8F8B8823808D800B69BFF35F8F002225
:1014E0001A608CF310880B7801329A40CB68084957
:1014F0008C4663441A6070BD0122DDE70B69BFF3BF
:101500005F8F00221A608CF3108801204042F2E7BE
:101510003C20000010B543890A1493421ADD5300A1
:101520009B184269DB00D3180469EFF3108C72B684
:101530002268002AFCD0BFF35F8F5A88090494B256
:10154000090C8A4208D00369BFF35F8F00221A603A
:101550008CF31088002010BD8022120214435C809E
:10156000012302698371BFF35F8F002111608CF347
:101570001088044902788C469340C2680120624476
:101580001360E8E73C20000040787047F0B547461C
:10159000CE46060080B596246442E5170F00A419D4
:1015A0007D4183B08D4215D812D000F0E3F82200BF
:1015B0002B00121A8B41002B16DC002B40D0300080
:1015C000390000F0E1F803B0C0BCB946B046F0BD48
:1015D0008442EAD90024002500F0CCF822002B0038
:1015E000121A8B41002BE8DD00F0C4F822002B001A
:1015F000121A8B41002B0ADB00230193124B2200AD
:10160000009312482B00FFF72DFF0028D7DBA846D8
:10161000A1460F4D0F4C6B6A984504D8AA6A9145B4
:10162000CDD99845CBD12268EFF3108172B61368FB
:10163000002BFCD0BFF35F8F200010F0F5FFEAE72E
:10164000002ABCD0D0E7C0468912001054120020F6
:1016500000400540BC180120F0B5D6464F4646462E
:10166000C0B504000D0082B0EFF305878946002F56
:101670000ED0344900204B6AAB4203D38A6A013052
:10168000A24226D302B0E0BCBA46B146A846F0BD9D
:101690002D4B9846DB689A46434650461E7800F02C
:1016A00061F80B00514602000436B6007158200064
:1016B0008E1A2900801A99418F4211DC0ED020BF6A
:1016C000204A0020536A4B45DCD3926A0130A24283
:1016D000D8D25B1B5A1E9341D8B2D3E78642EED9CB
:1016E00000F048F822002B00121A8B41002B1ADB65
:1016F00000230193154B2200009340462B00FFF777
:10170000B1FE011E0FDD0F4B5A6A4A4517D39B6A83
:10171000A34212D34046FFF7FDFE0A4A0020536A57
:101720004B45AFD3D1E7074A0020536A4B45A9D3B5
:10173000926A0120A242A5D2CBE74A45EAD120BF56
:10174000E8E7C0460040054054120020891200100E
:1017500010B5024A0248FFF719F810BD54EF021005
:10176000442600200300416A0A00986A596A8A42A6
:10177000FAD17047034B596A0A00986A596A914234
:10178000FAD1704700400540064A536A9942FCD896
:1017900007D1044B02E05A6A914202D19A6A82420E
:1017A000F9D3704700400540F8B5DE464E4657462F
:1017B0004546E0B58B4605000A991800160000F072
:1017C0003BFC0A9B6C001F02324B64199C46A40030
:1017D0006444636881469F4200D967602B1FDBB277
:1017E0009846012B30D9C02380229B01E3181201B7
:1017F0001A60294BAD0059599A4600291BD1730133
:10180000E026226853401E40802342465B01E318D5
:101810001E60012A30D9802380229B01E318120127
:101820001A6053464A4667605A51F0BCBB46B246FE
:10183000A946A046F8BD586900F0FEFB0130430000
:101840001B18033BFDD2DAE75B46012BCBD1C0234B
:1018500003229B01E3181A60023AA3681A42FCD0E3
:101860007301E0262268AD0053401E4080230A4ADF
:101870005B019246E3181E605A46216851400322DC
:101880000A401A6001225B469A40A3681A42FCD0C3
:10189000C1E7C046008000404C260020F0B5464617
:1018A0004F46D646C0B51F00344B44009C46241812
:1018B000A4006444636888461600FF2B02D8802386
:1018C0005B006360031FDBB29A46012B30D9C02353
:1018D00080229B01E31812011A60294B8500595997
:1018E000994600291BD17301E026226853401E400F
:1018F000802352465B01E3181E60012A30D9802301
:1019000080229B01E31812011A6080235B00636050
:101910004B465F51E0BCBA46B146A846F0BD586997
:1019200000F08AFB013043001B18033BFDD2DAE7CD
:101930004346012BCBD1C02303229B01E3181A603D
:10194000023AA3681A42FCD07301E026226885009F
:1019500053401E4080230A4A5B019146E3181E60F3
:1019600042462168514003220A401A600123424640
:101970009340A2681342FCD0C1E7C04600800040FB
:101980004C260020014B8000C05870474C26002098
:10199000F8B5040021481E0017000D0000F04CFBB4
:1019A0000100380000F048FB069B36041B031E4371
:1019B0002368002B20DB1A4B1A49E3185A1E934167
:1019C0008022920194465B421B0B174A1B0363441F
:1019D0001360164A13601F000A689743FBD1144B2B
:1019E0002560E2182123A06013602368002BFCDA35
:1019F0000823E6601360F8BD3F2322681340AB4222
:101A0000D9D1A3681B051B0D8342D4D1EE22E36814
:101A1000D2021340B342CED1EDE7C046001BB7005F
:101A20000040FDBF08C0004000E0004000F0004062
:101A30000430000010B580241C4BE4051C60002815
:101A40001AD001231A4C18431A4BDC611A4C44403B
:101A50001C62596298628021144BC90519601748AD
:101A600017490860E021C9041960002A07D18022C3
:101A7000144B12061A6010BD0E4BD861EBE75301F0
:101A80009B1A9B009A18802312015B049A4209D288
:101A900013000D490B60074B5A608022094BD20599
:101AA0001A60E8E7094B1A00F3E7C04600B00540AA
:101AB000D3C007B0008005402D3FF84FFCFF010068
:101AC0000820014000A00540146B0020FFFFFF002C
:101AD0008023024A9B000B43D3627047008005407D
:101AE000142310B50100188804331B88984710BDD3
:101AF000162310B50100188802331B88984710BDC3
:101B0000F8B54746CE4680B50F1E19D01423994626
:101B1000043304000025012698464B4618884346A6
:101B200021681B88984701C4431E984101354042F3
:101B30000640AF42F1D13000C0BCB946B046F8BD56
:101B40000126F8E7142370B50400188804330D004B
:101B50001B88034998472900030020009847C04686
:101B600055420000142370B50400188804331B8804
:101B70000D000549984703000020002C01DB0130CF
:101B8000A04029009847C0465542000001207047F8
:101B9000D021F0B5C64609060A681E4B9200804661
:101BA00000B5D35883F3108803230C681A4D2B55C6
:101BB00040BFFFF7DFFDFA2206000F00002340467A
:101BC0000021920000F0AAFD8023801979411B06B4
:101BD000994202D30120114940422B5D0E00042B93
:101BE00008D00F4A536A9E420ED8976A874201D2A4
:101BF0009E4209D0285D0438431E9841012340428B
:101C0000984380BCB846F0BD20BF2B5D042BE9D1C2
:101C1000F0E7C046F06800201C6B0020FFFFFF7F4C
:101C200000400540F0B5C646D02300B51B061C6831
:101C300086B005AB2200029301235A4093408022D4
:101C40000193002380460093274923002748D200B0
:101C500013F006FB01283ED1254D285540BF1F211A
:101C6000059812F09FF8FFF785FDFA2206000F0095
:101C7000002340460021920000F050FD802380198F
:101C800079411B06994222D22B5D0E00022B08D00F
:101C9000184A536A9E4215D8976A874201D29E42DB
:101CA00010D02B5D022B19D1D0231B061A68EFF33D
:101CB000108172B60020104B9200D15006B080BC4B
:101CC000B846F0BD20BF2B5D022BE2D1E9E7012031
:101CD0000A494042D8E709204042EFE703230220A7
:101CE0002B554042EAE7C04678EF021095020020EB
:101CF0001C6B002000400540F0680020FFFFFF7FC4
:101D0000004870476C120020F8B506000F0015005F
:101D1000FFF7F6FF041E0AD0436828009847002802
:101D200004D13800B0472800A3689847F8BD0420C4
:101D30004042FBE7AA23064A1B0113608D235B0088
:101D4000D3600449044B19605368002BFCDA7047D8
:101D50000040024000B0FA00006002407047C046F8
:101D600010B50148FEF7DEFC88EF021070B5074D94
:101D7000074EB54209D20024013E761BB60808CDB5
:101D8000984723000134B342F9D170BDD0ED021061
:101D90000CEE021070B5074D074EB54209D2002473
:101DA000013E761BB60808CD984723000134B342A4
:101DB000F9D170BD04EE02100CEE0210054B064A7C
:101DC00006491A60064A074B1A6010000B689843D0
:101DD000FBD1704700E00040BFCDFBFE08C00040D3
:101DE000FE7F3C0000F00040044BDB6C002B03D175
:101DF0008022034BD2021A607047C0460000115087
:101E00004C201150044A054B1A60054A1368DB0147
:101E10008033FBD17047C046FFFFFF0100F0004058
:101E200008C000404022034B9A675A671A67DA6677
:101E30007047C04600F0014010B5FEF75DFD10BDD3
:101E4000F8B52749274C284D641AA6103200302EC9
:101E500000D930222800920000F0EAFCBC2C3BD8CC
:101E600030202F232C196407204A801BE40F9B1B72
:101E7000052B16D93700002C02D0B300771CEA508E
:101E8000001B33199B004108EB18C900C9181A60E0
:101E90005A6008339942FAD1012303421CD0984377
:101EA000C619B300EA50731C2F2E15D09B00EA50C0
:101EB000B31C2E2E10D09B00EA50F31C2D2E0BD0FD
:101EC0009B00EA50331D2C2E06D09B00EA50731D58
:101ED0002B2E01D09B00EA50054B9D60F8BDC046FB
:101EE00000010010C001001000000020C10100101E
:101EF00000ED00E0002310B5294C82B0A367FFF786
:101F000019FF0122274B1A60636C012BFCD10322BD
:101F1000254B1A60224A936B012BFCD101330093AD
:101F20000121224A22480433FFF732FD0523012113
:101F30000093204A2048FFF72BFD002202210420B5
:101F40001E4BFFF7ABFC0022012105201C4BFFF7C5
:101F5000A5FC0022002107201A4BFFF79FFC00225E
:101F600000210820174BFFF799FC8023DB0000932A
:101F7000002200210920134BFFF716FC0022104B12
:101F800000210620FFF78AFC0420FFF7FBFC0E4926
:101F900000F052F801000020FFF79AFD02B010BDDA
:101FA000008000403CB0004030B00040002F685935
:101FB00000800240008C864700C00240001BB70032
:101FC00040597307006CDC0240420F0001480421B5
:101FD000014B184780120020011B0010014B9B6829
:101FE0001847000080120020124A936F9B0815D2F8
:101FF0009066D166002905D0FFE7FFE7FFE7516F44
:10200000106F704704B580210906C217514000289F
:1020100000D0C8432CF08CFE002104BDF0B5146E36
:10202000556E576F166FFFF7E3FF146655665767D7
:102030001667F0BD000000D0114A936F9B0813D2C1
:1020400010665166002905D0FFE7FFE7FFE7516FF3
:10205000106F704704B5002801D00020C0432CF059
:1020600067FE002104BDC046F0B5146E556E576F73
:10207000166FFFF7E5FF1466556657671667F0BDE4
:10208000000000D094464A4A926F9208624601D2FC
:1020900028E0C046F0B5464E346E756E776F366FE9
:1020A00000F020F89446424A146655665767166752
:1020B0006246F0BD94463E4A926F9208624601D253
:1020C00054E0C046F0B53A4E346E756E776F366F99
:1020D00000F04CF89446364A146655665767166702
:1020E0006246F0BD002B24DB11D000293EDA00B59A
:1020F000C943404200D1013100F038F8C9434042A1
:1021000000D10131DB43524200D1013300BD002A2E
:10211000EBD1002801D1002905D00020C90FC90743
:1021200001D1C043410800B52CF0F2FD002200238C
:1021300000BD00B500290ADBDB43524200D1013368
:1021400000F014F8C943404200D1013100BDC94339
:10215000404200D10131DB43524200D1013300F053
:1021600005F8DB43524200D1013300BD002923D1E1
:10217000002B18D1002A0CD0BC460D4F38667A6669
:1021800000210023FFE7FFE7FFE77A6F386F67461C
:102190007047002801D00748010000B52CF0B8FDB9
:1021A0000022002300BD02000B0000200021704728
:1021B000000000D0FFFFFFFF002B00D0BFE0130C9A
:1021C00028D1002AE7D080B4114F39667A66FFE73C
:1021D000FFE730B4040C7B6F396F1B0423433B666D
:1021E0007A66FFE7FFE7FFE7C04684B27B6F3D6F8B
:1021F0001B0423433B667A66FFE7FFE7C0460023E4
:102200002C042D0C7A6F386F00196941B0BC7047EF
:10221000000000D0F0B594460025140E01D1120242
:102220000835140F01D112010435940F01D1920029
:102230000235D40F01D152000135D40B0134254FA2
:102240007C66254C3C660E0C93B2FFE7FFE7FFE788
:102250003C6F6643360C7703BE467343DF0B5B046B
:10226000C01AB941130C7343DB18C91ACE08664370
:10227000360CB64493B273431F0F1B01C01AB94109
:10228000130C73431F0B1B05C01AB941860D8F0237
:102290003E436643360C092D24DB520A7243801AF2
:1022A0007703460A6643360C16235B1BDE40DF408D
:1022B000BF1964466643821B70460435063301002D
:1022C000D940A840C01900D30131A24206D2002350
:1022D000F0BD0000000000D0FFFFFFFF121B013027
:1022E000F3D3F1E709277F1BFE406446A2B2724395
:1022F000801A00D20139220C7243130C1204821A84
:1023000099410B007046043513370100F940A8408D
:10231000801900D30131002B02D1A2420AD2F0BDB4
:10232000013000D30131121BFAD2013BF8D1A24295
:1023300000D2F0BD013000D30131121BF7E7F0B538
:102340001C0C00D080E00CB400251C0A04D11B0238
:10235000160E3343120208351C0B04D11B01160F55
:102360003343120104359C0B04D19B00960F334379
:1023700092000235DC0B02D192185B4101351C0042
:10238000971864410134464F7C66464C3C660E0CFF
:10239000FFE7FFE7FFE7C0463C6F6643360C770375
:1023A000BE4697B27743C01B00D20139C01B00D292
:1023B00001399FB27743C91BC91B170C77437E04B1
:1023C000FF0B801BB941CE086643360C0C2D33DB66
:1023D000B644120B1F053A431B0B97B27743C01B41
:1023E00000D201399FB27743C91B170C77433E04D3
:1023F0003F0C801BB941860D8F023E43664329275F
:102400007F1BFE400C3D7746AF40BF1930BCA2B2E7
:10241000ABB272437343801A9941220C7243130C7E
:102420001204801A994102000B000137001BA941D8
:10243000F9D2781E0021F0BD0C277F1BFE407746A5
:102440007F0BAF40FF19E0E700245D1C07D0144F5D
:102450007D663966FFE7FFE7FFE7FFE73C6F95B270
:102460009EB265436643401BB141150C1E0C65438B
:10247000664336042F0C3E432D04401BB141994264
:1024800004D202000B0020000021F0BD01D19042D7
:10249000F7D3801A994101349942F2D3F6E700004C
:1024A000000000D0FFFFFFFF48404140484018B403
:1024B000134B5B68019308BD18B4114B1B68019363
:1024C00008BD94460F4A926F920805D2624618B42E
:1024D0000B4BDB68019308BD0A4AF0B5146E556ECC
:1024E000576F166F6246FFF7F2FF064A146655668D
:1024F00057671667F0BD18B4014B9B68019308BD80
:10250000601A0020000000D0FFB55040424050400B
:1025100059404B40594000E0FFB5154F4C00640D49
:1025200003D0BC4204D10C0314D80020090D0905C6
:102530005C00640D03D0BC4204D11C030AD8002205
:102540001B0D1B0501264B4009D44B4003D58B4284
:1025500000D18242FFBD9942FCD19042FFBD0B43A6
:10256000DB1803431343F5D0C9434918FFBD0000EE
:10257000FF07000000B5FFF7CFFF804100BDC04658
:1025800000B5FFF7C1FF01D9002000BD012000BD4B
:1025900000B5FFF7B9FF804100BD012040054A00AA
:1025A000121804D85A00121801D8002070470120D0
:1025B000704700000021002805D17047C11748402E
:1025C000401AFAD0C90713B5064B1B6898470CBCD4
:1025D000441CA2401005120B0349091B09051943AD
:1025E000114310BDB81701201F04000010B54C00A6
:1025F000620D8023D218DB00D21A5B057E2A10DD23
:102600009E3A13DACC170903490819435242D140C4
:10261000640001341532202A05DAD04008436043B3
:1026200010BD002010BD0846604310BDC80FC01883
:10263000013810BD18B4024B5B6A019308BD00005D
:10264000601A002010B50148FEF76CF894EF0210F4
:10265000132370B51D78012D19D014DD1D48FFF727
:1026600047FA06001C48FFF743FA1C4C8022310051
:10267000200000F0DDF8022D06D01948FFF730FAEF
:10268000184B186070BD154C174BA364F5E7174B3A
:10269000124C23606360A360E36023616361A36104
:1026A000E36123626362A362E36223636363A36300
:1026B000E36323646364A364E36423656365A365E0
:1026C000E36523666366A366E36623676367A367C0
:1026D000E367D9E75344000053460000601A002026
:1026E0004C330000B8170120F126001045260010D9
:1026F00007B5604601880A0A0230DF2AFAD1C9B25A
:10270000820804D3028840880004104300E0006877
:10271000014A5050039007BD601A002051434343C3
:10272000C9188C46110C83B24B4310B4040C61439E
:1027300092B280B2504362431C041B0C001910BCBF
:1027400059411304120CC0185141614470470000F4
:1027500010B50148FDF7E6FF04210310132310B55F
:1027600010481C78FFF7C4F90100012C0AD003DDE2
:1027700080220D4800F05CF80C48FFF7B1F90C4BD3
:10278000186010BD084C5422200000F051F82200BF
:10279000084980322368002B00D121600434944220
:1027A000F8D1E9E753460000BC1701204C33000084
:1027B000B81701205127001070B504000A4E3000F0
:1027C0002CF0F6FA20002BF0EDFE050030002CF086
:1027D0008FFA002D05D0054B2C199C4201D82800FA
:1027E00070BD0348FDF79EFF701800200000042014
:1027F000ACEF021070B50400054D28002CF0D8FA9B
:1028000020002BF0D9FE28002CF072FA70BDC046D3
:102810007018002001480421014B18479012002035
:10282000011B0010014B1B6818470000901200208C
:10283000014B5B6818470000901200209A4200D2BA
:10284000885470477047C046F8B55746DE464E4636
:102850004546E0B599460A9B07009A460D9B884677
:1028600093460B9C9B073BD10C9B9C423DD21E1B6D
:102870000B9415000C005E442A004B4601352100E4
:102880002020B847B542F7D1A0460B9C002C20D0A1
:10289000454636195346321B013C185D29004B460C
:1028A000B847002CF6D12B00350098460D9B9B07AE
:1028B0000FD55B46EC1A0C9BA3420AD946469846B4
:1028C0002A004B46310020200134B84701354445E9
:1028D000F6D32800F0BCBB46B246A946A046F8BDD8
:1028E00016001500002CD3D1E0E716001500002CCF
:1028F000CED1EEE7F0B54F464646D646C0B584B0D9
:1029000098460EAB1B7894469946129B0D9C109FDF
:10291000119E9A0726D4002E51D1BC4222D2012208
:102920001A409246202C00D1F8E00C9A551E302215
:1029300002E0202C00D176E001342A55A742F8D8D5
:102940005246002A00D10AE1B4420BD20C9A551E1D
:102950003022202C02D16DE0202C52D001342A5597
:10296000B442F9D1DA0610D4202C1DD103930C9B6C
:1029700062460093029643460194FFF765FF04B058
:10298000E0BCBA46B146A846F0BD5A0541D4002C79
:102990003BD10F9A102A00D1ABE0022A00D1BBE054
:1029A00030220C9C227001244A46002A59D15A0731
:1029B00000D496E02B220C9D2A550134D6E7012243
:1029C00015001D40AA461A4250D04A46002A79D125
:1029D0000C321A4276D1BC42B6D2202CA5D1202E80
:1029E00028D82024DA06C1D55A0505D4202F00D1D5
:1029F000BCE0202E00D1ABE00F9A102AB6D12024E3
:102A0000B4E7DA06B2D55A0545D4A7425CD0B44241
:102A10005AD00F9A102A42D0022A4AD0202CA5D090
:102A20002200013459E05246002A00D185E0202ED0
:102A300000D882E02024DA0698D55A05DCD4202F6D
:102A400000D193E0202ED7D10F9A102A00D1A1E017
:102A5000022A00D19AE030220C9CE2772026340032
:102A600084E72D220C9D2A5501347FE7BC4200D318
:102A700078E7202C00D058E7DA06C0D55A05BED436
:102A80000F9A202F00D189E0202EB8D1102A00D132
:102A900080E00F9ADCE70F9A102A00D066E79A06CA
:102AA00030D5202CABD058250C9A12191570013452
:102AB000B4E7202C00D159E72200013462250C9F95
:102AC000BD54ABE7013E86E7621E012C00D160E7F2
:102AD0000F9D102D27D0022DF0D030250C9FBD5416
:102AE00042E71A0700D441E720220C9D2A55013401
:102AF0003CE79A060ED478220C9C22703022627039
:102B0000022451E7202C00D179E778220C9D2A5528
:102B1000013483E75822EFE76222EDE7002A00D074
:102B20005FE7A9E71F220C9FA51EBA4655449F06E2
:102B300012D55822013C2A7072E7DA0600D415E754
:102B40005A0500D558E7202F19D0202E00D060E775
:102B500020261F223400BBE778272F70BDE7DA0656
:102B600000D401E75A0500D44FE752E70F9A102A24
:102B7000D8D0022A06D030220C9DEA77F6E620242F
:102B80001F22A5E70C9D6032EA77EFE60C9C6032CD
:102B9000E27763E720261F223400C4E7102A06D01C
:102BA000022A07D030220C9CE2773C00DEE63C0093
:102BB0001F22B8E70C9C6032E2773C00D6E6C046A4
:102BC00010B5002800D110BD01F072FCFBE7C04633
:102BD0000B0010B5002802D049681B68984710BD4B
:102BE000F0B557464E464546DE46E0B59BB0249EBE
:102BF000259F81468A4698460A923B003200300063
:102C00003900FFF7CAFC002800D0C0E001223000E4
:102C100039007D4B5242FFF7BBFC002800D0B6E0E4
:102C2000012230003900794B5242FFF7A3FC002803
:102C300000D0ACE00022002330003900FFF79AFCFE
:102C4000002800D01BE2089609970898099980236C
:102C5000289ADB001A400F928022289C120114400F
:102C600022000B94289C8B460C901C4200D0A5E0BF
:102C70000B00034300D0CDE0002A00D020E2220068
:102C80000633269302231A400C92289A134200D04E
:102C900023E2279B042B00D22FE2043B0B9300235B
:102CA0009B4604330E930022002330003900FFF7C7
:102CB00061FC002800D0AFE1554B289A13400493E3
:102CC0000B9B0393269B0293089B099C0093019402
:102CD000514643460A9A484600F064FA0200202012
:102CE000289B0025034059424B415B421840531C2E
:102CF0000893514643464530C8475A46D317D4181F
:102D0000D70F0122524294465C400E9B63449B467F
:102D100001E0202D13D00AAA94461F23200063440B
:102D20000A2101355E19FFF787F930313170200033
:102D30000A21FFF781F926000400092EE9D80523AE
:102D400006935B460593002304930A33039312AB67
:102D50000093514643464846089A02970195FFF76B
:102D6000C9FD0C9B0400002B20D00A9BC51A279B91
:102D7000AB421BD94E46574622004346390020201D
:102D8000B047279B01350134AB42F5D80EE0289BB4
:102D9000009601970493279B0393269B0293434637
:102DA000514648460A9A00F0FDF9040020001BB085
:102DB000F0BCBB46B246A946A046F0BD01432BD1AC
:102DC0000B9B2200002B00D15CE700239B46269B37
:102DD00000245B4500DDA6E100220023300039001D
:102DE000FFF7C8FB002800D051E1289B084A029455
:102DF0001A408023DB0013430493279B0393089B13
:102E0000099C00930194CAE7FFFFEF7FFFFFEFFFEC
:102E1000FFF7FFFF062326935B465800C94B400D82
:102E20009C466044FFF7CAFBC74AC84BFFF763FBE9
:102E3000C74AC84BFFF740FB5B461B031A0BC64B48
:102E4000040013430D000C9819000022C34BFFF738
:102E50002EFBC34AC34BFFF74EFB02000B002000C2
:102E60002900FFF729FBFFF7C1FB8346FFF7A6FB0D
:102E7000BD4ABE4B04000D00FFF73DFB0022BC4BDA
:102E8000FFF71AFBFFF7B2FBBA4ABB4B29000E90C3
:102E90002000FFF730FB04000E980D00FFF78EFBBB
:102EA000B64AB74BFFF727FB02000B0020002900B2
:102EB000FFF7FDFA04000D0002000B000C940D95C5
:102EC000FFF719FB04000D000C980D9902000B0090
:102ED000FFF7F2FA002210901191AA4B200029006E
:102EE000FFF7EFFA0022A84BFFF7E6FA02000B000B
:102EF00020002900FFF7E5FA0022A44BFFF7DCFAD7
:102F000002000B0020002900FFF7DBFA0C9A0D9B52
:102F10000D0080210400C9050020FFF7C8FA020057
:102F20000B0020002900FFF7C7FA02000B001098E1
:102F30001199FFF7C6FA0022874BFFF7BDFA944BB1
:102F40000E9C9C46644423050022FFF7D4FA04003B
:102F50000D0002000B0008980999FFF70BFB0028F1
:102F60000BD001235B429C46200029000022864BA7
:102F7000E344FFF7A6FA04000D005A46633223002B
:102F80002900C62A5CD80222289810400B9A0C907F
:102F9000002A00D196E004220E920B4300D116E7DE
:102FA000089809997B4A7C4BFFF7EAFA002808D079
:102FB000089809990022794BFFF7DCFA002800D025
:102FC00005E7269B002B4ED00F9B002B4BD0269B5A
:102FD0000E9A013B2693279B934200D885E00C9BD9
:102FE000002B00D19BE002230C9300230B935B4644
:102FF000002B00D157E60898099922002B00FFF713
:1030000060FA002208900991002330003900FFF790
:10301000B1FA002800D14FE6089C099D80200006E7
:1030200029008446289A5E4B6144134004930B9B0D
:1030300022000393269B02930B000092019347E624
:1030400002222898104002000C900B98002834D1DE
:10305000279B052B5BD9002A69D1279B053B0B9346
:1030600005230E93C7E7279B0E9A93423DD90C9BED
:10307000002B54D000230B9302330C93B7E780232B
:103080001B069C46BC44634608960993DDE58020F8
:10309000289B434A00061A40802384460294089CD9
:1030A000099D2900DB0013430493279B6144220000
:1030B00003930B000092019371E605220E926CE7D8
:1030C000052489E6279B042B19D9002834D1279B96
:1030D000043B0B9304230E9389E700239B460B9339
:1030E00002330C9302330E93DDE50C9B5A1E934181
:1030F0005B000C9300230B9379E70423CDE50300D9
:103100005A1E93415B000C9304230E936FE7130048
:103110005A1E93415B000C9305230E936BE7279B8C
:103120009B1A0B9363E75A469C1A013C54E6022310
:103130000C9303330E935EE704230E93023B0C9330
:1031400055E7C04601FCFFFFFB799F501344D33F76
:10315000B3C8608B288AC63F0000F03F0000F83FEC
:1031600061436F63A787D23F71A379094F930A40E8
:103170000000E03F1655B5BBB16B0240EF39FAFED7
:10318000422EE63F00002C40000024400000184082
:10319000FF0300002D431CEBE2361A3F80842E41D2
:1031A000FFF7FFFFF0B54546DE464E465746E0B511
:1031B00095B08B46904699461E9A1F9B0A9019001F
:1031C0001000209DFFF7E9F9002800D0A4E11E9827
:1031D0001F990122C74B5242FFF7CCF9002800D0BB
:1031E0000DE11E981F990122C34B5242FFF7D0F9FF
:1031F000002800D0AAE01E981F990022BF4BFFF7BD
:10320000C7F9002800D08BE01E981F990022BC4B04
:10321000FFF7B0F9002800D082E01E981F99002225
:103220000023FFF7A7F9002800D0A4E000230B93A8
:103230008023229C229ADB001C401A4200D1ACE081
:10324000092D00D88DE106AA94462C0017270023EB
:103250003022093C67440133FA54E91A202B00D18B
:103260002AE1A342F7D100228A46A44B0692079393
:103270001E981F99FFF7BAF90500FFF79FF90200A2
:103280000B001E981F99FFF712F9069A079BFFF78C
:1032900032F908900991FFF7CDF90600FFF78AF996
:1032A00002000B0008980999FFF701F90022954BDD
:1032B00008900991FFF76CF9002800D1C6E00136AB
:1032C0003000FFF777F9069A079BFFF759F90028B6
:1032D00001D0002601355346002B00D197E006AB04
:1032E00017279C4606956744554612E001343B1962
:1032F0009A460A213000FEF79FFE5346303119707E
:1033000030000A21013DFEF797FE092E00D8BAE0F1
:103310000600202CEAD1069D0CAB20249A4656E0EC
:10332000229B42460493219B594603930A981E9B75
:103330001F9C0295009301944B46FFF751FC15B07A
:10334000F0BCBB46B246A946A046F0BD229B5B0737
:103350000ED403226C4B2299019203912199029180
:10336000009342464B4659460A98FFF76DFAE6E746
:103370000422664BEFE71E9A1F9B00200021FFF7F7
:1033800096F801230B938023229C229ADB001E9047
:103390001F911C401A4200D052E700225C4B06925B
:1033A000079306239A4663E706AA94461723280044
:1033B00063440A2101341E191F00FEF715FE303147
:1033C000280031700A21FEF70FFE051E4BD0202C7D
:1033D000EAD10323229A1340012B09D1219B002B10
:1033E00006D00B9B002B00D19EE0219B013B21933B
:1033F000229B01940393219B02935346B0E7229BA7
:103400000393219B029304230193424BA8E72800D6
:10341000FFF7D4F802000B001E981F99FFF747F83A
:10342000384B002206000F00FFF7A4F80CAB9A46B9
:103430000028CCD1002230003900324BFFF7A8F829
:103440000028C4D1EB07C2D50135C0E70022089897
:1034500009992C4BFFF78EF8002800D03BE7002E8F
:1034600043D1013637E70323229A1340012B00D1C1
:1034700081E0202CBCD00B9B002B26D02D23524664
:1034800013550134B4E7AA46069D202C00D143E72A
:10349000534651461A193023002906D001343B55B2
:1034A000202C00D138E79442F8D10CAB9A462E2359
:1034B0005246135501348AE70022104B8A462024D5
:1034C00006920793D4E6202C92D0229B5B0704D56A
:1034D0002B235246135501348AE7229B1B0787D5BD
:1034E000202352461355013482E7F30700D4F2E655
:1034F0000136F0E6FFFFEFFFFFFFEF7F65CDCD4127
:1035000065CDCDC10000E03F04F00210FCEF0210D9
:1035100080842E410CF00210229B0393219B029386
:10352000032301931C4B1BE70C23229A134214D054
:10353000219B013B2193A342C5D906AB17279C468B
:1035400067443023202C00D152E7219A01343B55A7
:1035500094428ED2202CF8D14AE7219BA342ECD88A
:1035600046E70E4BEA009B185C681B68AA46069368
:10357000079400247CE6219B002B00D179E70B9B6C
:10358000002BD1D0219B013B2193A342D9D8202CE1
:1035900000D073E72CE7C04608F00210203D03106E
:1035A000F0B5DE4657464E464546E0B5A5B01E008E
:1035B0002E9B92460C93CE4ACE4B80468B461A6089
:1035C000002900D11DE2002330789946002800D15F
:1035D0001FE2C94B4C460B93C84B454657460E93CA
:1035E0000AE0631C984622003B005946A84744461F
:1035F0003078002800D187E001362528F1D1082352
:103600009A46043B9946023B9846013B00229C4661
:103610000D943078711C0300203BDBB2102B03D8D3
:103620000B9C9B00E3589F460300303B89460D9C52
:10363000092B3AD9002398462A2800D1DDE000233F
:103640009A462E284BD00300683BDBB2122B1ED8C3
:103650000E999B00CB589F4663460E001A43D8E74D
:1036600043460E001A43D4E74B460E001A43D0E7F8
:1036700010230E001A43CCE753460E001A43C8E746
:1036800080235B001A43FF3B9C467078E1444E4622
:1036900067284FD82428A4D90300253BDBB2422B4E
:1036A0009FD897499B00CB589F46002394461E0005
:1036B00000E00131B3009B195B001E180878303E12
:1036C0000300303B092BF4D90123624689469C460E
:1036D0000023B0469A460E00E1442E28B3D1302193
:1036E000802049428C46C000024370784B46844497
:1036F0006146092900D89EE12A2800D1ACE10123C6
:103700009C464E46E1449EE7A146A846BA46CA45B5
:1037100003D801235B425344994653464A465946CF
:103720000020C047200025B0F0BCBB46B246A946E9
:10373000A046F0BD0300693BDBB20D930F2B00D90F
:103740004FE7012199408C466E49894661464B46B8
:1037500019400F91634649460B4200D05BE10D9B37
:103760000A2B56D0072B00D03BE70C9B190008C949
:103770008846002B00D083E11023100098431133BA
:103780001843814680201300C000034002421CD130
:1037900014A98C461F220F2162440D958C461500FA
:1037A0000F990C9402E020290CD0130064461C40B1
:1037B00020003730092C00D80738013168541A0925
:1037C0000F2BF0D80C9C0D9D0F914B4606930823B0
:1037D00005935346049310230393002302930F9BF6
:1037E000220001931CAB009359463B002800FFF7D1
:1037F00081F8434604000C93FAE60C9B02CB884602
:1038000000295FDB0C9301239C4670784E46E1440F
:1038100015E70C9B02CB1493534608780C90002BB1
:1038200000D127E1013B002801D100F070FC0133F9
:103830009C468C440B0089460C986146944601E0F6
:103840008B4203D05A780133002AF9D149466246A7
:103850005B1A0C900D93530500D476E10D9B5345F4
:1038600001D953460D930223180010400F901342C4
:1038700000D1B2E20F93D1460B1B9A463300A1440C
:103880002E0022004D460C98B9465F469B4609E043
:103890004B463900541CB0475346185D002800D1F0
:1038A00079E122009542F3D15B46BB464F46A946DB
:1038B00035004C461E000F9B002B00D094E1149B5A
:1038C0000C9395E60C9301239C4628384942024309
:1038D000884670784E46E144B1E670786C2800D195
:1038E00052E180235B001A43FF3B9C46E144CEE655
:1038F000A1350010006B0020803B0310C43B031077
:10390000103C03104190000080239B001A430123C8
:103910009C467078E144BAE67078682800D12DE1C1
:1039200080231A437F3B9C46E144B0E6672800D1E0
:10393000AAE0472800D102E1452800D102E1049223
:10394000072142460C9B0392073352468B431900D2
:1039500002920CC92800009201930C9122003B00B6
:103960005946FFF73DF9040042E6462800D18FE0B2
:103970000492072142460C9B0392073352468B4325
:10398000190002920CC92800009201930C912200A8
:103990003B005946FFF706FC040029E6631C9846E5
:1039A00022003B0059462520A847444620E60C9BB0
:1039B00004330D93631C9946920700D4F0E00C9BEE
:1039C0002200187859463B00A84743464444012B3F
:1039D00000D853E23300B8462E005F4625004C461F
:1039E000994622004346013439002020B047AC42BA
:1039F000F7D12C00BB46350047464E460D9B0C9335
:103A0000F6E5DA4B3078984600239946002800D036
:103A1000DFE500247BE66F283DD000D8D5E21023F7
:103A2000782800D185E09A430A239C4600230F930F
:103A30000A330D9335E05646B10089194900013328
:103A40000E181878303E010030390929F4D9B246F1
:103A50001E0001339946F6E50C9B023602CB8A46DE
:103A6000C9435046C917084082460C933078731CEE
:103A70009946E8E5002800D149E302235B42D6E6F7
:103A800021200243914683E680231B011A4356E717
:103A900020231A436CE708239C4600230F93083326
:103AA0000D9380231100DB0019401A4200D12DE153
:103AB0000D239A431000802302009B001A401492A9
:103AC000184200D0DCE1802302005B001A409146DE
:103AD0000C9A04320F92184200D0C7E2430600D578
:103AE000B1E1030600D41FE30C9B1B880993002B54
:103AF00000D015E210339843002900D110E20023D2
:103B0000994643460593534604930D9B06900393B1
:103B10000023ECE0582809D0622800D080E002237E
:103B20009C4600230F9302330D93BAE720231A43D8
:103B3000103B9C4600230F9310330D93B1E7802375
:103B40001B011A4320231A43F9E6022318001040F0
:103B50000F90134200D131E20F930B1BB1469A46EE
:103B60005E460C9822003B003100A84753460134C2
:103B7000185D0028F6D1B3464E469CE6C0231A4392
:103B8000F31C9946B07882E5C0239B001A43F31CCE
:103B90009946B0787BE535005E46BB464F468AE6DF
:103BA0004346012B00D863E1631E43449A46330029
:103BB000B9462E005F4655469B46A24622004B461C
:103BC000013439002020B047AC42F7D135005E46C1
:103BD000BB464F46A14654460C9B4A461878594668
:103BE0003B004444A84709E7A1460D9B984500D8EF
:103BF00065E64444E41A3300B8462E005F462500CB
:103C00004C46994622004346013439002020B047F3
:103C1000AC42F7D12C00BB46350047464E464EE637
:103C200080231000DB0018401A4200D107E1112167
:103C300018008A430D920D9A802311009B001940B1
:103C40008C461A4266D1802311005B0019408946D8
:103C50000C9904310F911A4200D0C9E113005B06A0
:103C600000D5E8E013001B0600D44AE20C9B0022BA
:103C70009B5ED9175A184A4092B2D90F0C91002B6B
:103C800000D1B1E1100014AA944642461F231592B8
:103C900052466344A84614944D460400B946B246C1
:103CA0001F00169201E0202D0FD020000A21FEF700
:103CB000C3F901357E193031317020000A21FEF739
:103CC000BBF926000400092EEDD8159B4F46A946E6
:103CD00045469846169B56469A46149C0D9B06935D
:103CE00043460593534604930A2303930C9B029384
:103CF0004B4601931CAB2200009359463B00280021
:103D0000FEF7F8FD0F9B04000C9371E40C239A431B
:103D10001000D0E607220C9B0733934301329446F0
:103D20009C4462460C920CCBD90F0F9111001943A1
:103D300000D08CE000239946002837D100220023D0
:103D40001092119314AA0023944642469946159264
:103D500052461F336344A846B24614944E46109C04
:103D6000119DB94616921F0004E0C0464528001078
:103D7000202E10D0200029000A220023FEF79AF9F5
:103D8000013630322B00BA550D0022000400002B02
:103D9000EED1092AECD8159B10941195454698460A
:103DA000169B4F46B14656469A46149C0D9B069369
:103DB00043460593534604930A2303930F9B0293B0
:103DC0004B4601931CAB2200009359463B00280050
:103DD000FEF790FD0400FFF70BFC0D9B984500D803
:103DE000B6E18023DB000F9343460D9A1B199B1A03
:103DF000994633002E004D46B9465F469B460C91CE
:103E000022004B46013439002020B047AC42F7D1A4
:103E100043460C9901330D930B7835000C935E46A5
:103E2000BB464F46002B00D149E50F9B002B00D12C
:103E300093E600231EE50C9B1B781A001DE7102358
:103E40009A430D92F7E60C9B1B7809934FE6D9171E
:103E5000139112915140109113995940119110985A
:103E60001199129A139B801A99411090119169E748
:103E70000C9B2200187859463B00A8474C46BDE5EC
:103E80000C9AFA3BFF3B07329A430133994691441F
:103E90004B460C931368526815921A4305D11032A1
:103EA00090430022099200297DD16122810600D52C
:103EB0004122D2B20A9214AA91460A9A00210A3AE1
:103EC000149242461892524619925A460991B346A4
:103ED0001F311E000F9B4944BA4616941A950024C0
:103EE000674698468946159D17901B920AE0303226
:103EF000D2B24B4601341A55A84546D0202C46D0A4
:103F000006000D003A00002330002900FEF7D2F829
:103F1000D2B2092AEBD9149B9C466244D2B2E8E79C
:103F20006123820600D54123DBB214A90A3B1F227C
:103F30008C460C9343466244A846149417974C460B
:103F40001700B146099D0D9E1590169308E0303379
:103F5000DBB201343B55B5420ED3202C0CD005000A
:103F600031002800FEF768F8CBB20929EFD90C9A86
:103F700094466344DBB2ECE7169B45464E469846B2
:103F8000A1461598179F149CBBE5B742B6D9189B5C
:103F900057469846199B5E469A461B9B09949B463A
:103FA0001798169C1A9D43460593534604930D9B00
:103FB0000690039300230293099B02E70D9B98450B
:103FC00000D911E701330D93C7E510231100994380
:103FD0000D91692800D0B9E080231000DB00184063
:103FE0001A4200D127E622E6002800D076E64AE60B
:103FF0000C9B1B68DA0F1100002B7FD0DA17981882
:10400000504014AA91461F2342464B44A84614949C
:10401000169704006546B1461F000C91159201E009
:10402000202D0FD020000A21FEF706F801357E1959
:104030003031317020000A21FDF7FEFF2600040018
:10404000092EEDD8159BAC46454698460C9B4E462E
:104050001900149C169F0D9B0291069343460593ED
:10406000534604930A230393634642E60C9B1B6862
:104070009946002B03D110339843002933D1612393
:10408000820600D54123DBB214A90A3B1F228C46CD
:104090000C9343466244A84615944D461897B14682
:1040A0001700149C0D9E1690179308E03033DBB276
:1040B00001343B55B5420ED3202C0CD00500310005
:1040C0002800FDF7B9FFCBB20929EFD90C9A944625
:1040D0006344DBB2ECE7179B45464E469846149482
:1040E0001698159C189F43460593534604930D9BC1
:1040F0000690039300230293149BFAE50028AAD1AB
:104100007FE70C9B1B68D9175A184A40B5E58023F6
:104110001000DB0018400D901A4209D092071BD501
:104120000023A1460D9360E50C9B1B680993DEE418
:10413000022318001040A1460F90134200D054E50E
:104140004346002B00D04FE6FFF7B9FB0A006BE4B3
:1041500001330D93FFF78FFB4346002B01D1FFF78F
:10416000AEFB00230D938023DB000F933CE6C0469B
:104170000CB430B585B008AC08CC064D0A000094EC
:10418000010028000394FFF70BFA05B030BC08BC0F
:1041900002B018473D28001000B585B003910121F9
:1041A00002900093034813004A4202A9FFF7F8F96E
:1041B00005B000BDD12B001010B5094A03001468EA
:1041C00084B0002C08D0012200910648524203A975
:1041D000A047012004B010BD00F0B6F90020F9E7B7
:1041E000006B0020C12B00100021002010B5FDF74E
:1041F000A9FCC046094A03001068002805D00849F8
:10420000C3188B4207D81360704706480449C31887
:1042100010608B42F7D901204042F5E77061002021
:1042200000000420281F032010B5FFF7DDFFC04663
:1042300070B5FDF79BFD074D074EB54209D200242E
:10424000013E761BB60808CD984723000134B342DF
:10425000F9D170BD0CEE021018EE0210030010B57B
:10426000080011001B68984710BDC046F0B5C6464F
:1042700000B5437D07000D001600002B43D0002A37
:104280001EDD0B78027D0A2B35D001240020A642CA
:1042900009D06B1E1A5D631C98462B5D0A2B12D049
:1042A0004446A642F5D1864203DD311A3B68281800
:1042B0009847AD19013D2B780D3B5A4253413B7550
:1042C00080BCB846F0BD0D2AEAD0844203DD211A35
:1042D0003B682818984744460D4802213B68984798
:1042E0002000A642D5D1AD19013D2B780D3B5A4295
:1042F00053413B75E4E70124002AEDD001239846A1
:1043000000204446CDE70368110028009847D7E70E
:10431000703D0310F0B5C6460B6806000C0000B5F2
:10432000802B06D05A1C2260E418267180BCB84647
:10433000F0BD0F4B1D68002D16D00B1D98460D4F7C
:1043400002E02D69002D0FD02B68002BF9D03B68BF
:10435000002B01D0AB42F4D1280041462268FFF780
:1043600085FF2D69002DEFD101220023DBE7C04638
:104370002835002084350020F0B5DE4657464E46ED
:104380004546E0B585B017001C0006000D00FDF79E
:10439000F1F90023314A12184B41802109068B4262
:1043A00002D301222E4B52422E4908008A462AF09F
:1043B000DFFC01906B1C03D130002AF07EFB05006E
:1043C000002C26D0284B9846284B1C68002C15D072
:1043D000002F21D1264F02E02469002C0ED0236843
:1043E000002BF9D03B68002B01D09C42F4D1200077
:1043F0002A003100C0472469002CF0D1019B002B1A
:1044000028D1280005B0F0BCBB46B246A946A0465C
:10441000F0BD184B9846D7E7154B994602ABDF1D08
:104420000A239B4602E02469002CE7D02368002B76
:10443000F9D04B461B68002B01D0A342F3D12A00D0
:1044400031002000C0475B460122390020003B704C
:10445000C047E8E750462AF04BFCD2E740420F0045
:10446000FFFFFF7F781800206D42001028350020E4
:10447000843500205D4200100A4A1368002B05D1E4
:104480000CE01A001B691032002B07D09842F8D1BB
:10449000002902D103691360016170470029FCD033
:1044A0001060FAE72835002010B500F003FB10BDBE
:1044B000F0B5CE46474680B583B06B460600DD1D9D
:1044C0002870FDF757F900231A4A12184B41802132
:1044D00009068B4202D30122174B524217490800AA
:1044E00088462AF045FC164B81461C68002C14D0E7
:1044F000144F02E02469002C0FD02368002BF9D060
:104500003B68002B01D09C42F4D1200001222900FD
:10451000FFF7ACFE2469002CEFD14B46002B05D1F0
:10452000300003B0C0BCB946B046F0BD40462AF0EA
:10453000DFFBF5E740420F00FFFFFF7F7818002008
:10454000283500208435002070B504002AF0B5FA23
:1045500001230100050001222000FFF70DFF084B99
:104560001C68002C06D06368002B05D0984724698E
:10457000002CF8D1280070BD2469002CF3D1F9E794
:1045800028350020F0B5CE46474680B5A3B00400DC
:104590000D00FDF7EFF80023294A12184B41802146
:1045A00009068B4202D30122264B5242264F380085
:1045B0002AF0DEFB00230600019322002B00234893
:1045C00001A9FFF7E9FD019B8046002B14D1204B88
:1045D0001C68002C06D06368002B0BD09847246918
:1045E000002CF8D1002E25D1404623B0C0BCB946DE
:1045F000B046F0BD2469ECE7154B1D689946002DC7
:104600001CD0144C02E02D69002D0FD02B68002B1C
:10461000F9D02368002B01D0AB42F4D12800019AD5
:1046200002A9FFF723FE2D69002DEFD14B4601951E
:104630001C68CEE738002AF05BFBD5E70195D1E78F
:1046400040420F00FFFFFF7F781800201543001045
:1046500028350020843500200FB400B583B004A9AC
:1046600001C90191FFF78EFF03B008BC04B01847E1
:104670007047C0460022014B1A7070470A1F032082
:104680004B790020FF2B0BD18B79002B08D1CB79F4
:10469000012B05D1082A03D9024B8A7809301A70F8
:1046A0007047C0460A1F03200120704710B501293A
:1046B00001D0012010BD13495379107909781B02EC
:1046C000034300209942F5D15378012B08D0022BE7
:1046D000F0D1002064220021FDF7ACF90120E9E7C8
:1046E000D37891781B021943DB0507D54A0A1000DD
:1046F00001231A407E331940FDF734FA01204A0A9B
:104700004042F5E70A1F0320004870473C3E031073
:1047100070B5050014000120012909D1537800204B
:10472000012B05D1637912791B021343072B00D0AB
:1047300070BD21002800024A9F3301F067FAF7E7B5
:10474000943D03100123037000487047743D03102B
:104750004B780A781B0213438A7810B512041A4367
:10476000CB781B0613439622D200934200D010BD93
:104770000022012011004042FDF7F4F9024B1860BD
:10478000024B19607047C046382600203C260020A6
:1047900010B5024B1878FCF7EDF810BD0D1F032083
:1047A000154B70B51A68002A22D0EFF3108172B64B
:1047B00010680028FCD0BFF35F8F00200F4A5960BB
:1047C00010701B68BFF35F8F186081F3108800249E
:1047D00000250B4E3078FCF7C1F8002804D10024E6
:1047E00000252900200070BD3078FCF7C3F8F8E7F9
:1047F000FA240025A400ECE72C0501200E1F03205D
:104800000D1F032070B5040000200E0001F01EFBF8
:10481000002836D0002001F02FFB002831D0FCF713
:10482000A9FF0023184A12184B41802109068B4228
:1048300016D2164D28002AF09BFA002821D000201D
:1048400001F004FB00280FD101200021404200F0BC
:1048500011FD0324644228002AF04AFA200070BDAA
:1048600001220B4B5242E4E7002001F005FB002837
:10487000EAD021003200002001F008FB041EEAD13A
:10488000E7E703246442E9E740420F00981A012059
:10489000FFFFFF7F10B5FCF76DFF00230E4A1218D3
:1048A0004B41802109068B4202D301220B4B52421D
:1048B0000B4C20002AF05CFA00280CD001200021CB
:1048C000404200F0D7FC002001F026FB0028F5D183
:1048D00020002AF00DFA10BD40420F00FFFFFF7FBD
:1048E000981A0120F8B5DE46574680B505000C0041
:1048F000FCF740FF0023374A12184B41802109067C
:104900008B4202D30122344B5242344908008A467A
:104910002AF02EFA002803D1C0BCBB46B246F8BD2F
:10492000002001F093FA00284AD00026002C43DD35
:104930002B4B9B4614E0A919002001F027FB070030
:1049400001200021404200F095FC002001F0E4FA33
:10495000FCF710FF224BF61918605960B4422BDDAA
:10496000002001F033FBA71B0200B84200DD3A0033
:10497000002AE0D101200021404200F07BFC002011
:1049800001F0CAFA002001F061FA002814D00020DA
:1049900001F01CFB0028E1D1FCF7ECFE5B460F00A8
:1049A0001A685B68002184460E4812184B419F42EA
:1049B00002D8D3D19445D1D950462AF099F9ABE722
:1049C00000200021064B1860596050462AF090F9EB
:1049D000A2E7C04640420F00FFFFFF7F981A012068
:1049E000501A002020A1070030B52B4C85B00021C3
:1049F00020002AF0A5F900281CD1284B1A68002AAB
:104A000016D0EFF3108172B610680028FCD0BFF307
:104A10005F8F01242248596002781B68D2B204706B
:104A2000BFF35F8F0020186081F31088002A17D031
:104A300005B030BD01200021404200F01BFC0020E9
:104A400001F01AFA050020002AF052F9002DEFD0EB
:104A5000144B1B68002BEBD0134A10689847E7E70C
:104A6000FCF792FC0400FCF785FEFA22002392007A
:104A700012184B41802109068B4202D301220B4BB5
:104A80005242012102910021019109492000009127
:104A9000FCF77EFCCCE7C046981A01202C050120CB
:104AA0000E1F0320382600203C260020FFFFFF7F3A
:104AB000A1470010D02310B51B0684B01C68FCF77A
:104AC00063FCFCF761FDA04202D0002004B010BDE1
:104AD0002A4B002100201B7801F074FD2848036850
:104AE000002B47D00120FCF7E3F9FF23254C264992
:104AF00020701840FBF758FF20780121FBF71CFFBE
:104B00000520FBF73FFF002826D1082200211F487F
:104B1000FDF788FEFCF738FC0400FCF72BFEFA22B8
:104B20000023920012184B41802109068B4202D3C8
:104B30000122174B52420121029100210191154996
:104B400020000091FCF724FC0028BEDB1248012164
:104B5000FFF792FC0120B9E70120FBF7BBFE0B4BEE
:104B600001001800FCF708FA002205200B49FBF7AA
:104B700045FFEBE7FCF7E4F9B4E7C0469C110710EA
:104B8000981A01200D1F0320E94900102C0501206F
:104B9000FFFFFF7FA1470010A012002091470010E7
:104BA00000487047D83E031000487047843E031009
:104BB00010B5040017480378002B20D0002C06D134
:104BC000154B16484380063BFF3B038010BD052C68
:104BD00019D8134BA400E05812490123013804E00E
:104BE00001330A800231142B0FD0C25C002AF7D1A6
:104BF000C022DBB25B00920008481343E5E71121B5
:104C000000F022F8DAE70020E0E7CA2303489B001F
:104C1000DBE7C046041D03200904000040300020EB
:104C20006C3E03104230002010B5024800F0E0F85E
:104C300010BDC046AC17012010B508220149FDF790
:104C4000F7FD10BDAC17012030B54B1E012900D176
:104C5000A7E0664A11780D092C0030349F2900D94D
:104C6000A2E00470012B00D1BEE00F211478214096
:104C70000C003034092900D998E04470022B00D18F
:104C8000B2E054782509290030319F2C00D990E0FA
:104C90008170032B00D1A7E00F2121400C0030349C
:104CA000092900D987E0C470042B00D19CE09478D6
:104CB0002509290030319F2C00D97FE00171052B97
:104CC00000D191E00F2121400C003034092900D996
:104CD00076E04471062B00D186E0D47825092900BE
:104CE00030319F2C00D96EE08171072B00D17BE021
:104CF0000F2121400C003034092966D8C471082BDB
:104D000000D171E014792509290030319F2C5FD83A
:104D10000172092B68D00F2121400C003034092981
:104D200058D844720A2B5FD05479250929003031B4
:104D30009F2C52D881720B2B56D00F2121400C0092
:104D4000303409294BD8C4720C2B4DD094792509E5
:104D5000290030319F2C00D9073101730D2B43D02E
:104D60000F2121400C003034092901D937310C00C2
:104D700044730E2B38D0D1790C09220030329F2990
:104D800000D9073282730F2B2ED00F220A40110058
:104D90003731092A01D830321100C173102B23D0CA
:104DA00010300023037030BD07345AE737310C0050
:104DB00063E707316CE737310C0074E707317DE7B3
:104DC00037310C0085E707318EE737310C0095E766
:104DD00007319DE737310C00A3E70731AAE73731E8
:104DE0000C00C4720C2BB1D1C018DAE7AC1701204B
:104DF00010B588B004000D2200216846FDF712FDB1
:104E00000D22002104A8FDF70DFD4B236A466846DC
:104E1000137004A90D2229F063FF15210822200038
:104E20006944FDF705FD08B010BDC046F8B500F0B7
:104E300043F90C23194DFF22AB6705201849FBF7F6
:104E4000DDFD184C402200212000FDF7EBFC40273F
:104E5000002301262121144A66702783A260136073
:104E600063545F31618445396354104A104963606B
:104E7000E2602787A1620B606362E26229F040FF73
:104E800080239B052E64EB6490230A4A0120EA509C
:104E90008022094B5202DA64F8BDC046000011506E
:104EA000F9060020D8640020840010500001105042
:104EB0008000105010D001000020115010B50121C9
:104EC0000520FBF739FD10BD10B500220021024876
:104ED00000F012F910BDC046F8640020044B1970B0
:104EE000002904D080219023024A8902D1507047C2
:104EF000F61E0320002011500B785B0602D14B7880
:104F0000052B00D070478A78014B1A60FAE7C0463B
:104F100000001150F0B5C646C87800B58007830F71
:104F20001800012B60D08F780A794B797F213940A6
:104F3000FC091B024E001343334D32195201AA18CB
:104F4000977001276740577000275B055B0DD7708E
:104F50001383D076B846CA00012C32D02B4FBC4602
:104F60008F016244BC46AC446746BA60474617604E
:104F7000002932D0264AC900904662464144516019
:104F80003F223F339343022837D0224937190A681A
:104F90007F01D3180B602049EF19FA608B422ED89D
:104FA00036197601AD19EB7E1C499B064A40134326
:104FB0008022120613436A681360012080BCB84641
:104FC000F0BD174FBC468F016244BC46AC446746F7
:104FD000BA6247461760002908D1002364012C19E2
:104FE0006360104BE360E8E70020E7E70B4AC90085
:104FF0009046624641445162C2E75B00C5E7FCF758
:10500000AFFEFA68CCE7C046D86400208400105098
:10501000040010501C050120FF0F1050000010501C
:10502000800010500001105010B529F069FE10BD2D
:1050300010B57F200C0020404000E4091100001949
:105040001A00034B4001C01800F056F8012010BDB3
:10505000D86400207F23180010B50840CA090B420D
:1050600003D107497D3B9B1A8B6640008018802244
:10507000044B40010021C018120129F091FE10BD1F
:1050800000201150D86400207F22130010B50B407F
:105090000A4200D110BDC9095B005B1804485B01DE
:1050A000C018002300220349C37029F079FEF1E7FC
:1050B000D8640020FFF7FFFF80220A4B520410B58E
:1050C0001A60094B09491A6010000B689843FBD11C
:1050D0008022002152010648FDF7A4FB0922054B5E
:1050E0005A6710BD00E0004000F0004008C00040DA
:1050F0000000105000001150002310B5C38201338E
:10510000828283760161040029F042FE002804D0E7
:1051100080219023074A8902D150200029F050FEB7
:10512000002802D00123237710BD200029F028FE9B
:10513000FAE7C046002011507047C0467047C0468D
:1051400000207047002070477047C0467047C04637
:105150007047C0467047C046024B5878431E98417E
:10516000C0B27047D81E0020024B18784007C00F0D
:105170007047C046D81E0020F0B5D6464F4646467A
:10518000C0B5314B07009A461B780E00FF2B01D0AB
:10519000012044E0002941D0002154222B48FDF792
:1051A00041FB00222A4C2B4B20001A70FBF7C8FE53
:1051B000294B1C60294C2000143CFBF7CFFE20003B
:1051C00001F008FE264B274D1C60274B002B2BD0EF
:1051D0002800FFF7B7FA254B2A78186024490024E5
:1051E000894622490023884610E043461B68620135
:1051F0009B18002B12D05B68002B0FD098472A78A1
:105200000134E4B2511C2300A1420FDBA242ECD8CE
:105210009B1A5B014B445B68002BEFD10020E0BC84
:10522000BA46B146A846F0BD2A78D7E753463100C2
:1052300038001F70FFF7FAFD0028EFD03800FFF7A5
:105240003DFE0120EBE7C046D4120020D81E00200E
:10525000D01E0020F71E03202C1F0020CC1200209F
:10526000301F0020F51E032045470010281D002098
:10527000943F0310F0B5DE4657464E464546E0B52E
:10528000C84B91B002931B78FF2B00D13EE1C64B77
:10529000C64E9B465F46C64B0DAC0193C54B009373
:1052A00035686A69EFF3108172B61368002BFCD081
:1052B000BFF35F8FA9612800210001F0B9FB6A6983
:1052C000AB69BFF35F8F0021116083F31088002862
:1052D00000D11BE16378082BE2D89B00FB589F4666
:1052E0006368002BDCD0A0689847D9E77F2221793A
:1052F000AF4D0A405300EB189846C8098044404619
:105300000123303005799D430571057903339D43B1
:105310000571002A00D100E14346A74A1B7D12789F
:10532000934200D3EFE0A54A5B011568ED18002D0C
:1053300000D1EBE0A36862792078AD69A847AFE7B8
:105340009F4A1378002B00D1E0E01378013BDBB2D9
:1053500013701378002BA3D10122954D01212B78D6
:10536000042013432B703423EA5C8A43EA54EA5C3A
:105370008243EA540133EA5C8A43EA54EA5C82439A
:10538000EA54237800209B4600F0A0FC6022237999
:105390001A40602A00D1EFE0402A00D1F5E0DB0698
:1053A000DB0E012B00D113E1022B00D1C7E0002B53
:1053B00000D0E1E0202A00D11CE2002A00D0DBE08E
:1053C0006379092B00D9D7E07E4A9B00D3589F46CA
:1053D000774D2B78DB0700D462E7FFF7BBFE5FE772
:1053E000019BDB78DB0700D45AE76068FFF7A6FE75
:1053F00056E76F4D2B78DB0700D451E7287800077C
:10540000C00FFFF7A5FE4BE723786A4999468B4604
:10541000694B6A4998468A4639001A7847460023FC
:10542000B04600254E46894610E053461B686A0187
:105430009B18002B00D176E0DB68300098473A7863
:105440000135EDB2511C2B008D4244DC9542ECD36A
:105450009B1A5B015B44EFE7237858499946564B0A
:105460008A4698463100BB464E461A7800250023EE
:10547000474689460FE053461B686A019B18002B7C
:1054800055D0DB68300098473A780135EDB2511CB1
:105490002B008D4207DC9542EDD39B1A009A5B01ED
:1054A00094466344EDE7019D542200212800FDF756
:1054B000B9F91022FF214448FDF7B4F92800202251
:1054C000FF2114304E465F46FDF7ACF900F0F4FBC7
:1054D000FFF73CFEE4E6364D542200212800FDF79C
:1054E000A1F91022FF21281DFDF79CF92800202298
:1054F000FF21143046464F46FDF794F900F0DCFBDF
:105500002379AB70CCE6501C984213DA11B0F0BC92
:10551000BB46B246A946A046F0BDA3686279207892
:1055200000F0E8FBBCE646464F46214DE6E74E4616
:105530005F46CBE71F4D9B1A5B015D19FAE67023AE
:10554000217A0B4218D1C80982460F330B405B0009
:1055500098461948EB1853441B7D007899468342BE
:1055600066D216485B01006881469944002A00D142
:105570005FE14B46002B68D120780021FFF76AFDE0
:1055800080212078FFF766FD8AE6104800F09EFB38
:10559000012158460EAAFFF7BBF8002800D07FE68D
:1055A000EAE7C046D4120020EC3E0310301F002072
:1055B000D81E0020943F0310F51E0320281D002054
:1055C000F71E0320103F0310DC1E002011470010BF
:1055D000237A0F2BD0D8CF4AEB181B791578AB4222
:1055E0003ED3691C9942C7DB5D1BCB4B6D01ED18A7
:1055F000686900F06BFB012158466B690EAA984759
:10560000002800D04CE66022150023791D401A4284
:10561000B2D163790A3B012BAED800F057FB637916
:105620000A2B00D199E158460EA900F0D9FA37E6C5
:10563000431C4B4500DAF7E04B461B1A5B019946C9
:10564000B5488144002A00D1F3E04B46586900F088
:105650003DFB4B46012158465B690EAA98479CE7E3
:10566000AE4A5B011568ED18002DC1D184E7A3791E
:1056700099466B789945D6D06B78002B00D033E1F2
:105680004B466B70002B00D12BE148460138C0B26D
:10569000FFF78AFA002800D17EE143780793022BB6
:1056A00000D079E10122C179B1468B114911134033
:1056B0000A40302112015B0113432A78A8468A432D
:1056C00013432B7009239A4682445646BA46C37840
:1056D00082781B021343C31805938E4B04938E4BA1
:1056E00008938E4B09938E4B0A93059BB34200D8C7
:1056F00055E1737801220B2B03D13378F278F61839
:105700007378042B00D044E1059B00279B1B9BB2C0
:105710000693049B0B921D78002303931BE0099AC8
:105720007B011568ED18002D00D132E1310058469B
:105730002B69069A98478446082803D9069A82421C
:1057400000D313E1049B01371D78FFB26B1C039754
:105750009F4200DD1DE1BD42E1D8039B5D1B089B1C
:105760006D019C466544E1E76B780CAA0232137028
:10577000584601230EA900F049FA91E5E3881A0A78
:10578000D8B20F2A00D9F7E666499300CB589F4656
:105790000EA800F0A1FA5846A179FFF795FB022266
:1057A0002B7813432B707BE5E388012B00D0E3E6D5
:1057B00008222B78584693430EA92B7000F010FA5C
:1057C0006EE5022029780CAB9A1C8B068908DB0F4A
:1057D00001400B431380584602230EA900F016FA2D
:1057E0005EE5E388012B00D0C6E608222B78134340
:1057F0002B7018E7237A0F2B00D9BDE6EB181D7923
:10580000444B1B789D4228D2444B6D011B685D19A7
:10581000002D00D1B0E6686900F058FA0121584621
:105820006B690EAA9847B8E6002A00D0A4E60023C8
:10583000994662790220130003928343012B15D00D
:10584000002A00D098E62B004344534430331B79A0
:105850000CAA9B07DB0F0232BCE75A1CAA4200DAF3
:105860008AE6ED1A2C4B6D01ED18D4E7E388002B86
:1058700012D1029B1878039B012B23D0FFF7EAFB80
:1058800043460221EB18534430331A790A4301216D
:105890001A711A790A431A714B46002B00D1FFE4A2
:1058A000586900F013FA4B4601215B690EAA58466D
:1058B0009847002000F00AFA3523EB5CDB0700D59F
:1058C000EEE4B0E6FFF7E0FB43460221EB18534459
:1058D00030331A798A431A711A7903998A431A71F3
:1058E000DAE7FFF733FC9EE600215846FFF7F6FAA9
:1058F0005846FFF799FBAB78074903930491054B92
:10590000064998461A780591002329001D008A4609
:105910001BE0C046F51E0320943F0310281D002005
:10592000EC1E0020383F0310059B6A011B689B1882
:10593000002B4DD0DB685846984743461A7801350E
:10594000EDB2511C2B008D422EDC9542ECD39B1AFC
:10595000049A5B0194466344ECE70CAB9A1C5846EE
:1059600001230EA9157000F051F999E40B9A012A50
:105970004FD0002A3CD00023B07804E00133DBB2E2
:105980000F71934234D2C118C9B241440D79FF2D31
:10599000F4D04E464546574600236B70ECE54E4624
:1059A0005746FFF7D1FB3EE655465422002128001A
:1059B000FCF738FF1022FF21281DFCF733FF2800D9
:1059C0002022FF211430FCF72DFF039BAB7057E61C
:1059D0005546FAE7FEF798FE021E00D1CCE5D378D3
:1059E00091781B020B4358460EA900F00FF9D4E53D
:1059F00065463B002A0031000A9800F089FEAC465B
:105A0000049B039A1B7866440133934200DB6CE6E7
:105A1000BFE7174B29699942ADD1079AABE7FFF76A
:105A20008FFB021E00D1A7E5584613780EA900F09F
:105A3000EDF8B2E52189FFF7BBF8021EF4D19BE532
:105A4000022A0FD0FFF77EFB021EC8D194E5FFF7B4
:105A5000A7F8021E00D18FE5122358460EA900F0C8
:105A6000D5F89AE5FFF7A0F8021EB8D184E5C04644
:105A7000D1600010F8B557464E46DE4645460C004C
:105A8000E0B516001F00002A3CD01F4B00259A46A7
:105A9000702399461D4B9B4617E05B462000997882
:105AA00000F0F8FD00281FD021004046FFF732FA31
:105AB000002819D0A378DA09012A1CD00A9A0135E6
:105AC00013702378E418B5421CDA6378052B0BD1E8
:105AD000E3789B079B0FBB4206D153464A461B788F
